:04000000FEEFFFF020
:1025000000000450800B0D6E045004240F6E03AEC7
:102510008CEF12F08EEF12F08FEF12F00F800F5051
:10252000D8B495EF12F097EF12F0ACEF12F00F283D
:10253000D8A49DEF12F09FEF12F0A7EF12F0000E5B
:10254000016E000E026E000E036E000E046E038E0E
:10255000000E046EB4EF12F0000E016E000E026E5B
:10256000000E036E000E046E0850800B0E6E0D50B0
:102570000E18D8B4BEEF12F0C0EF12F0C1EF12F097
:102580000D8C085008240E6E07AEC9EF12F0CBEF89
:1025900012F0CCEF12F00E800E50D8B4D2EF12F041
:1025A000D4EF12F0E9EF12F00E28D8A4DAEF12F00F
:1025B000DCEF12F0E4EF12F0000E056E000E066E76
:1025C000000E076E000E086E078E000E086EF1EF0B
:1025D00012F0000E056E000E066E000E076E000E65
:1025E000086E0F500E5CD8B0F8EF12F0FAEF12F050
:1025F00021EF13F00DACFFEF12F001EF13F003EF3A
:1026000013F0800E0D1A0FC510F50EC50FF510C58D
:102610000EF501C510F505C501F510C505F502C596
:1026200010F506C502F510C506F503C510F507C57A
:1026300003F510C507F504C510F508C504F510C568
:1026400008F5000E106E0F500EC509F50A6A095EF6
:10265000000E0A5A0ABE36EF13F00A5009E11A0EAC
:10266000095CD8A036EF13F038EF13F06FEF13F0DA
:102670000150021003100410D8A441EF13F044EFEE
:1026800013F0010E45EF13F0000E106E000E016EF8
:10269000000E026E000E036E000E046E0EC50FF5E6
:1026A00078EF13F010A057EF13F059EF13F05FEF2E
:1026B00013F0D89010300109106E61EF13F0D8902C
:1026C000103201A066EF13F068EF13F069EF13F01A
:1026D000108E043404320332023201320F2A0E50BB
:1026E0000F5CD8A076EF13F078EF13F052EF13F0F1
:1026F0000DBC7DEF13F07FEF13F0BFEF13F00F5021
:10270000D8A485EF13F087EF13F091EF13F0000ECC
:10271000016E000E026E000E036E000E046EE0EFFE
:1027200014F00550012606500222075003220850DB
:10273000042204A09EEF13F0A0EF13F04CEF14F06E
:1027400010A0A5EF13F0A7EF13F0ADEF13F0D890A2
:1027500010300109106EAFEF13F0D890103201A0C5
:10276000B4EF13F0B6EF13F0B7EF13F0108E04349C
:1027700004320332023201320F2A4CEF14F00550BA
:10278000015C06500258075003580450800A096E35
:102790000850800A0958D8B0D0EF13F0D2EF13F0E8
:1027A000FDEF13F00150055C096E025006580A6EE9
:1027B000035007580B6E045008580C6EFF0E092486
:1027C000016EFF0E0A20026EFF0E0B20036EFF0E3D
:1027D0000C20046E800E0D1A106C1050D8A4F3EF6C
:1027E00013F0F5EF13F005EF14F0010E0126000EC3
:1027F00002220322042205EF14F00550015E065068
:10280000025A0750035A0850045A0150021003108C
:102810000410D8A40EEF14F010EF14F045EF14F0EC
:102820001050D8A416EF14F018EF14F045EF14F080
:10283000000E016E000E026E000E036E000E046E9E
:10284000E0EF14F0D890013602360336043610AEAD
:102850002CEF14F02EEF14F02FEF14F0018010A0E5
:1028600034EF14F036EF14F03AEF14F0D88010364D
:102870003CEF14F0D89010360F50D8B442EF14F05B
:1028800044EF14F045EF14F00F0603AE4AEF14F0D6
:102890004CEF14F022EF14F0000E0E6E10AE53EF5A
:1028A00014F055EF14F06DEF14F010C509F57F0E1C
:1028B0000916D8B45EEF14F060EF14F064EF14F072
:1028C000010E0E6E6DEF14F001A069EF14F06BEFC6
:1028D00014F06DEF14F060EF14F00E50D8B473EFF5
:1028E00014F075EF14F0A0EF14F0010E0126000EA5
:1028F00002220322042204A080EF14F082EF14F0DD
:10290000A0EF14F001C509F502C50AF503C50BF5E2
:1029100004C50CF50C340C320B320A32093209C5ED
:1029200001F50AC502F50BC503F50CC504F50F2822
:10293000D8B49DEF14F09FEF14F0A0EF14F00F2A1D
:102940000F28D8B4A6EF14F0A8EF14F0B0EF14F0ED
:102950000F50D8A4AEEF14F0B0EF14F0C2EF14F0A3
:10296000000E016E000E026E000E036E000E046E6D
:102970000F50D8A4BEEF14F0C0EF14F0C2EF14F063
:10298000000E0D6E0FA0C7EF14F0C9EF14F0CCEFDE
:1029900014F0038ECDEF14F0039ED8900F30046E28
:1029A0000DAED5EF14F0D7EF14F0D8EF14F0048E7D
:1029B00001C501F502C502F503C503F504C504F51B
:1029C00012006EEC21F0000E046EC80E036E000EB5
:1029D000066E010E056EAAEC20F0000E046E000ECD
:1029E000036E000E066E010E056ECEEC20F0000E9A
:1029F000046EC80E036E000E066E010E056E62ECCC
:102A000020F0000E046E000E036E000E066E010E26
:102A1000056E86EC20F06EEF15F0D2A212EF15F0E5
:102A200014EF15F062EF15F01C0EF2EC20F001C56A
:102A300044F502C545F5210E136E080E146E020E04
:102A4000156E3E0E166E44C501F545C502F5036AC6
:102A5000046A000EBAEC1CF001C50FF502C510F5B2
:102A600003C511F504C512F52BEC17F00FC528F5B9
:102A700010C529F511C52AF512C52BF544EC1EF039
:102A800028C542F529C543F5040E4224426E010EC5
:102A90004320436E150E336E4B0E326EBE0EE82E83
:102AA000FED7322EFCD7332EFAD700D042C503F51D
:102AB00043C504F5000E066E010E056E62EC20F0B3
:102AC0006EEF15F0000E046E000E036E000E066E23
:102AD000010E056E86EC20F0010E5F6E5F50D8B4DB
:102AE00074EF15F076EF15F00DEF15F021EF17F0FC
:102AF00039EC20F00DEC1BF094EC1DF0CEB883EF18
:102B000015F085EF15F08CEF15F0D2A08AEF15F0D7
:102B10008CEF15F09AEF15F05E50D8A492EF15F0F7
:102B200094EF15F09AEF15F0010E5D6E010E5E6EDA
:102B3000ACEF15F0CEB89FEF15F0A1EF15F0ACEFAC
:102B400015F0D2B0A6EF15F0A8EF15F0ACEF15F028
:102B5000000E5E6E000E5D6ECEA0B1EF15F0B3EF0D
:102B600015F0CAEF15F05950D8A4B9EF15F0BBEF26
:102B700015F0CAEF15F05B04D8A4C1EF15F0C4EF4F
:102B800015F0010EC5EF15F0000E5B6E010E596ECB
:102B9000D3EF15F0CEB0CFEF15F0D1EF15F0D3EFA6
:102BA00015F0000E596ECEA2D8EF15F0DAEF15F041
:102BB000F1EF15F05850D8A4E0EF15F0E2EF15F062
:102BC000F1EF15F05A04D8A4E8EF15F0EBEF15F08B
:102BD000010EECEF15F0000E5A6E010E586EFAEF72
:102BE00015F0CEB2F6EF15F0F8EF15F0FAEF15F09C
:102BF000000E586E6B506C10D8A401EF16F003EF66
:102C000016F021EF16F06D506E10D8A40AEF16F0F2
:102C10000CEF16F021EF16F05C50D8A412EF16F06E
:102C200014EF16F021EF16F05D50D8B41AEF16F03D
:102C30001CEF16F021EF16F088EC21F0000E5D6E0F
:102C400000006D506E10D8B428EF16F02AEF16F081
:102C500040EF16F0D2A42FEF16F031EF16F040EF50
:102C600016F05D50D8B437EF16F039EF16F040EF9C
:102C700016F0D8EC1FF0000E5D6E000068EF16F045
:102C80006D506E10D8B447EF16F049EF16F068EFAC
:102C900016F0D2B44EEF16F050EF16F068EF16F0C3
:102CA0005D50D8B456EF16F058EF16F068EF16F0F6
:102CB000000E5D6E000E046E000E036E000E066EBA
:102CC000010E056E86EC20F0010E5C6E3DEF16F0F5
:102CD0006B506C10D8B46FEF16F071EF16F07CEFFC
:102CE00016F05D50D8B477EF16F079EF16F07CEF60
:102CF00016F0000E5D6E00006B506C10D8B483EFC0
:102D000016F085EF16F08FEF16F0D2B48AEF16F0BA
:102D10008CEF16F08FEF16F043EC21F000006D50B1
:102D20006E10D8B496EF16F098EF16F0A2EF16F0EA
:102D3000D2B29DEF16F09FEF16F0A2EF16F07BECEB
:102D400021F000005C50D8B4A8EF16F0AAEF16F0FE
:102D5000B9EF16F05D50D8B4B0EF16F0B2EF16F040
:102D6000B9EF16F0000E4F6E000E4E6E000E5D6E47
:102D700000006D506E10D8B4C0EF16F0C2EF16F020
:102D8000D5EF16F0CEBAC7EF16F0C9EF16F0D5EFB3
:102D900016F0D2A4CEEF16F0D0EF16F0D5EF16F065
:102DA000D8EC1FF00000F2EF16F06D506E10D8B4A2
:102DB000DCEF16F0DEEF16F0F2EF16F0D2B4E3EF30
:102DC00016F0E5EF16F0F2EF16F0CEBAEAEF16F0D5
:102DD000ECEF16F0F2EF16F07BEC21F0010E5C6EDA
:102DE000D2EF16F05C50D8B4F8EF16F0FAEF16F008
:102DF00005EF17F0CEBAFFEF16F001EF17F005EF71
:102E000017F0000E4F6E000E4E6E5C50D8A40BEF04
:102E100017F00DEF17F021EF17F0D2B412EF17F003
:102E200014EF17F021EF17F05D50D8B41AEF17F038
:102E30001CEF17F021EF17F0010E5C6E000E5D6EB7
:102E400000005F50D8A427EF17F029EF17F078EFB4
:102E500015F0FEEFFFF01250800B1B6E1250122483
:102E6000216E11AE36EF17F038EF17F039EF17F08B
:102E700021802150D8B43FEF17F041EF17F054EF05
:102E800017F02128D8A447EF17F049EF17F051EFBA
:102E900017F0000E0F6E000E106E000E116E000E79
:102EA000126E118E5CEF17F0000E0F6E000E106E9A
:102EB000000E116E000E126E1650800B1B1A16506B
:102EC0001624206E15AE67EF17F069EF17F06AEF62
:102ED00017F020802050D8B470EF17F072EF17F081
:102EE00085EF17F02028D8A478EF17F07AEF17F0C5
:102EF00082EF17F0000E136E000E146E000E156EAA
:102F0000000E166E158E8DEF17F0000E136E000E6C
:102F1000146E000E156E000E166E2050D8B493EF8E
:102F200017F095EF17F09DEF17F02150D8A49BEF05
:102F300017F09DEF17F0A7EF17F0000E0F6E000EC1
:102F4000106E000E116E000E126E3FEF19F015504C
:102F50000F02F3C426F5F4C427F526501C6E1D6A33
:102F60001E6A1F6A2750226E236A246A256A14503B
:102F70001002F3C426F5F4C427F526501C26000ED3
:102F80001D221E221F2227502226000E2322242229
:102F9000252213501102F3C426F5F4C427F5265058
:102FA0001C26000E1D221E221F2227502226000E44
:102FB0002322242225221EC51FF51DC51EF51CC572
:102FC0001DF51C6A13501002F3C426F5F4C427F54E
:102FD00026501C2627501D22000E1E22000E1F22E6
:102FE00014500F02F3C426F5F4C427F526501C260E
:102FF00027501D22000E1E22000E1F221EC51FF587
:103000001DC51EF51CC51DF51C6A13500F02F3C427
:1030100026F5F4C427F526501C2627501D22000E45
:103020001E22000E1F2215501002F3C426F5F4C410
:1030300027F52650222627502322000E2422000E98
:10304000252214501102F3C426F5F4C427F52650A6
:10305000222627502322000E2422000E252215505E
:103060001102F3C426F5F4C427F52650176E275035
:10307000186E196A1A6A19C51AF518C519F517C50F
:1030800018F5176A175022261850232219502422A7
:103090001A5025221CC517F51DC518F51EC519F5B2
:1030A0001FC51AF5190E5AEF18F0D8901A321932B6
:1030B00018321732E82E55EF18F017502226185004
:1030C0002322195024221A5025221EC51FF51DC582
:1030D0001EF51CC51DF51C6A205021C517F5186A80
:1030E0001726000E1822820E1724266EFF0E1820B7
:1030F000276E90EF18F0D8902236233624362536E6
:103100001FAE85EF18F087EF18F088EF18F02280D7
:10311000D8901C361D361E361F362606D8A0270628
:1031200024AE95EF18F097EF18F07BEF18F0000E33
:10313000206E1FAE9EEF18F0A0EF18F0C4EF18F04D
:10314000FF0E1C14176EFF0E1D14186EFF0E1E14BA
:10315000196E7F0E1F141A6E1750181019101A10BE
:10316000D8B4B5EF18F0B7EF18F0BBEF18F0010EB8
:10317000206EC4EF18F022A0C0EF18F0C2EF18F0D4
:10318000C4EF18F0B7EF18F02050D8B4CAEF18F019
:10319000CCEF18F0F0EF18F0010E2226000E2322DB
:1031A0002422252225A0D7EF18F0D9EF18F0F0EF50
:1031B00018F022C517F523C518F524C519F525C53E
:1031C0001AF51A341A3219321832173217C522F585
:1031D00018C523F519C524F51AC525F5264A272A49
:1031E00027BEFBEF18F0275008E12628D8A0FBEFF8
:1031F00018F0FDEF18F007EF19F0000E226E000E28
:10320000236E800E246E7F0E256E35EF19F027BEDB
:1032100014EF19F0275006E12604D8B012EF19F088
:1032200014EF19F020EF19F0000E226E000E236E3D
:10323000000E246E000E256E000E1B6E35EF19F089
:1032400026C521F5FF0E2216FF0E23167F0E24162B
:10325000000E251621A02FEF19F031EF19F032EFF3
:1032600019F0248ED8902130256E1B50251222C5CE
:103270000FF523C510F524C511F525C512F512006B
:103280001450800B216E14501424286E13AE4BEF93
:1032900019F04DEF19F04EEF19F028802850D8B4EE
:1032A00054EF19F056EF19F06BEF19F02828D8A455
:1032B0005CEF19F05EEF19F066EF19F0000E116E79
:1032C000000E126E000E136E000E146E138E000EA2
:1032D000146E73EF19F0000E116E000E126E000ED8
:1032E000136E000E146E1850800B211A18501824FB
:1032F000296E17AE7EEF19F080EF19F081EF19F00B
:1033000029802950D8B487EF19F089EF19F09EEF82
:1033100019F02928D8A48FEF19F091EF19F099EF3F
:1033200019F0000E156E000E166E000E176E000ED0
:10333000186E178E000E186EA6EF19F0000E156E9F
:10334000000E166E000E176E000E186E1550161039
:1033500017101810D8A4AFEF19F0B1EF19F0C9EF9A
:1033600019F0000E116E000E126E000E136E000E9C
:10337000146E800E13127F0E14122150141211C5F8
:1033800011F512C512F513C513F514C514F50CEF9C
:103390001BF02850D8A4CFEF19F0D1EF19F0DBEFD4
:1033A00019F0000E116E000E126E000E136E000E5C
:1033B000146E0CEF1BF0295028C519F51A6A195E16
:1033C000000E1A5A7F0E1924226E000E1A20236E48
:1033D00011C51DF512C51EF513C51FF514C520F541
:1033E000000E116E000E126E000E136E000E146EA3
:1033F000000E246E000E256E000E266E000E276E47
:10340000000E296E3CEF1AF02950D8B40AEF1AF0DA
:103410000CEF1AF023EF1AF0D8901D361E361F3627
:103420002036D890113612361336143627AE1BEFDD
:103430001AF01DEF1AF01EEF1AF01180D890243602
:1034400025362636273615501D5C16501E58175047
:103450001F5818502058D8A030EF1AF032EF1AF049
:103460003BEF1AF0278C15501D5E16501E5A175050
:103470001F5A1850205A292A190E296442EF1AF0AF
:1034800044EF1AF004EF1AF01D501E101F10201008
:10349000D8B44DEF1AF04FEF1AF067EF1AF024800E
:1034A00067EF1AF0D890113612361336143627AE5D
:1034B0005CEF1AF05EEF1AF05FEF1AF01180D8900F
:1034C00024362536263627362206D8A0230613AE04
:1034D0006CEF1AF06EEF1AF052EF1AF0000E296E30
:1034E00027AE75EF1AF077EF1AF09BEF1AF0FF0E88
:1034F0002414196EFF0E25141A6EFF0E26141B6E6F
:103500007F0E27141C6E19501A101B101C10D8B4F3
:103510008CEF1AF08EEF1AF092EF1AF0010E296E6E
:103520009BEF1AF011A097EF1AF099EF1AF09BEFAA
:103530001AF08EEF1AF02950D8B4A1EF1AF0A3EFC9
:103540001AF0C7EF1AF0010E1126000E12221322F4
:10355000142214A0AEEF1AF0B0EF1AF0C7EF1AF071
:1035600011C519F512C51AF513C51BF514C51CF5BF
:103570001C341C321B321A32193219C511F51AC506
:1035800012F51BC513F51CC514F5224A232A23BEC8
:10359000D2EF1AF0235008E12228D8A0D2EF1AF077
:1035A000D4EF1AF0DFEF1AF0000E236E2268000E3F
:1035B000116E000E126E000E136E000E146E23BEFE
:1035C000ECEF1AF0235006E12204D8B0EAEF1AF02B
:1035D000ECEF1AF0FAEF1AF0000E236E000E226ED6
:1035E000000E116E000E126E000E136E000E146EA1
:1035F000000E216E22C528F528A001EF1BF003EF75
:103600001BF006EF1BF0138E07EF1BF0139ED890F4
:103610002830146EBDEF19F01200110EF2EC20F0FC
:1036200001C54CF502C54DF50D0E136ECD0E146E91
:10363000D00E156E3E0E166E4CC501F54DC502F549
:10364000036A046A000EBAEC1CF001C50FF502C54E
:1036500010F503C511F504C512F52BEC17F00FC5D5
:1036600028F510C529F511C52AF512C52BF544EC2E
:103670001EF028C54AF529C54BF58E0E4A244A6E20
:10368000030E4B204B6E170EF2EC20F001C548F5EF
:1036900002C549F5210E136E080E146E020E156E4A
:1036A0003E0E166E48C501F549C502F5036A046A67
:1036B000000EBAEC1CF001C50FF502C510F503C5EC
:1036C00011F504C512F52BEC17F00FC528F510C540
:1036D00029F511C52AF512C52BF544EC1EF028C5B5
:1036E00046F529C547F5040E4624466E010E4720CF
:1036F000476E1C0EF2EC20F001C544F502C545F5FD
:10370000210E136E080E146E020E156E3E0E166E0E
:1037100044C501F545C502F5036A046A000EBAEC1A
:103720001CF001C50FF502C510F503C511F504C560
:1037300012F52BEC17F00FC528F510C529F511C5AA
:103740002AF512C52BF544EC1EF028C542F529C513
:1037500043F5040E4224426E010E4320436E6B502B
:103760006C10D8B4B6EF1BF0B8EF1BF0F7EF1BF0FE
:103770006D506E10D8A4BFEF1BF0C1EF1BF0F7EF38
:103780001BF05B50D8A4C7EF1BF0C9EF1BF0F7EF9D
:103790001BF04A506B5C4B506C58D8B0D2EF1BF00A
:1037A000D4EF1BF0E0EF1BF04AC503F54BC504F561
:1037B000000E066E010E056EAAEC20F03DEF1CF027
:1037C0006B504A5C6C504B58D8B0E9EF1BF0EBEFF4
:1037D0001BF03DEF1CF04AC503F54BC504F5000E88
:1037E000066E010E056ECEEC20F03DEF1CF06D5024
:1037F0006E10D8B4FEEF1BF000EF1CF03DEF1CF094
:103800006B506C10D8A407EF1CF009EF1CF03DEFD3
:103810001CF05A50D8A40FEF1CF011EF1CF03DEF34
:103820001CF04A506D5C4B506E58D8B01AEF1CF02B
:103830001CEF1CF028EF1CF04AC503F54BC504F53E
:10384000000E066E010E056E62EC20F03DEF1CF0DE
:103850006D504A5C6E504B58D8B031EF1CF033EFCE
:103860001CF03DEF1CF04AC503F54BC504F5000EF6
:10387000066E010E056E86EC20F06B506C10D8B40D
:1038800044EF1CF046EF1CF07CEF1CF05B50D8B40A
:103890004CEF1CF04EEF1CF07CEF1CF046506B5CC4
:1038A00047506C58D8B057EF1CF059EF1CF065EF3B
:1038B0001CF046C503F547C504F5000E066E010E63
:1038C000056EAAEC20F0B9EF1CF06B50465C6C5012
:1038D0004758D8B06EEF1CF070EF1CF0B9EF1CF039
:1038E00046C503F547C504F5000E066E010E056ECC
:1038F000CEEC20F0B9EF1CF06D506E10D8B483EF11
:103900001CF085EF1CF0B9EF1CF05A50D8B48BEFC7
:103910001CF08DEF1CF0B9EF1CF042506D5C435071
:103920006E58D8B096EF1CF098EF1CF0A4EF1CF086
:1039300042C503F543C504F5000E066E010E056E83
:1039400062EC20F0B9EF1CF06D50425C6E504358B1
:10395000D8B0ADEF1CF0AFEF1CF0B9EF1CF042C5D2
:1039600003F543C504F5000E066E010E056E86ECE8
:1039700020F01200096E0950D8B4C1EF1CF0C3EF5B
:103980001CF0E5EF1CF004BECAEF1CF0C8EF1CF001
:10399000E5EF1CF001C505F502C506F503C507F501
:1039A00004C508F5051E061E071E081E052A000E82
:1039B00006220722082205C50BF506C50CF507C52A
:1039C0000DF508C50EF5EDEF1CF001C50BF502C5B0
:1039D0000CF503C50DF504C50EF5015002100310DA
:1039E0000410D8A4F6EF1CF0F8EF1CF002EF1DF065
:1039F000000E016E000E026E000E036E000E046ECD
:103A000093EF1DF0960E0A6E0CEF1DF00A2AD89067
:103A10000E320D320C320B32000E0B14056E000EFE
:103A20000C14066E000E0D14076EFE0E0E14086EBA
:103A30000550061007100810D8A421EF1DF023EF41
:103A40001DF006EF1DF031EF1DF00A2A010E0B26C6
:103A5000000E0C220D220E22D8900E320D320C32A6
:103A60000B32000E0B14056E000E0C14066E000EC9
:103A70000D14076EFF0E0E14086E05500610071089
:103A80000810D8A446EF1DF048EF1DF025EF1DF0FB
:103A900050EF1DF00A06D8900B360C360D360E3658
:103AA0000DBE55EF1DF057EF1DF05FEF1DF0020E3C
:103AB0000A605DEF1DF05FEF1DF04AEF1DF00AB0E8
:103AC00064EF1DF066EF1DF067EF1DF00D9ED890BE
:103AD0000A320AC505F5066A076A086A05C508F5C7
:103AE000076A066A056A05500B1206500C12075049
:103AF0000D1208500E120950D8B481EF1DF083EF5B
:103B00001DF08BEF1DF004BE8AEF1DF088EF1DF055
:103B10008BEF1DF00E8E0BC501F50CC502F50DC522
:103B200003F50EC504F51200290EF2EC20F001C5D4
:103B30003EF502C53FF53EC501F53FC502F5036AF6
:103B4000046A000EBAEC1CF001C50FF502C510F5B1
:103B500003C511F504C512F5010E136E0A0E146E9D
:103B6000A00E156E3B0E166E2BEC17F00FC538F538
:103B700010C539F511C53AF512C53BF5180EF2EC32
:103B800020F001C53CF502C53DF53CC501F53DC53C
:103B900002F5036A046A000EBAEC1CF001C50FF5C9
:103BA00002C510F503C511F504C512F5670E136EB5
:103BB000400E146E530E156E3A0E166E2BEC17F067
:103BC0000FC534F510C535F511C536F512C537F5F5
:103BD000330E056E330E066ED30E076EBF0E086EE3
:103BE00034C501F535C502F536C503F537C504F50D
:103BF00081EC12F001C511F502C512F503C513F5EC
:103C000004C514F5CD0E156ECC0E166ECC0E176EC7
:103C10003D0E186E40EC19F011C534F512C535F59E
:103C200013C536F514C537F538C501F539C502F5A4
:103C30003AC503F53BC504F534C505F535C506F5AC
:103C400036C507F537C508F5C7EC1EF0D8B02BEF21
:103C50001EF02DEF1EF043EF1EF06B506C10D8B429
:103C600034EF1EF036EF1EF038EF1EF043EC21F07B
:103C70006D506E10D8B43FEF1EF041EF1EF043EFD1
:103C80001EF0D8EC1FF012002A342B34316E315064
:103C9000D8A44DEF1EF04FEF1EF059EF1EF0000EAE
:103CA000286E000E296E000E2A6E000E2B6EC6EFD7
:103CB0001EF028C52CF529C52DF52AC52EF52BC5D6
:103CC0002FF5200E69EF1EF0D8902F322E322D32B4
:103CD0002C32E82E64EF1EF02C50306E2A8EFF0E30
:103CE0002816FF0E2916FF0E2A16000E2B16960E0A
:103CF000315E31BE80EF1EF07EEF1EF096EF1EF0BB
:103D00003150800A970FD8B088EF1EF08AEF1EF06E
:103D10008CEF1EF04FEF1EF0D8902B322A32293252
:103D20002832313E8CEF1EF0AEEF1EF01F0E3164D4
:103D30009CEF1EF09EEF1EF0A6EF1EF04FEF1EF060
:103D4000D890283629362A362B3631063150D8A459
:103D5000ACEF1EF0AEEF1EF0A0EF1EF03050D8B466
:103D6000B4EF1EF0B6EF1EF0BEEF1EF02B1E2A1EA3
:103D7000291E286C000E29222A222B2228C528F56C
:103D800029C529F52AC52AF52BC52BF51200000EE9
:103D90000114096E000E02140A6E800E03140B6EDD
:103DA0007F0E04140C6E09500A100B100C10D8A4CE
:103DB000DCEF1EF0DEEF1EF0E6EF1EF0000E016EEF
:103DC000000E026E000E036E000E046E000E05144F
:103DD000096E000E06140A6E800E07140B6E7F0E1D
:103DE00008140C6E09500A100B100C10D8A4FBEF2D
:103DF0001EF0FDEF1EF005EF1FF0000E056E000E29
:103E0000066E000E076E000E086E04AE0AEF1FF07D
:103E10000CEF1FF015EF1FF0016C021ED8B0022A44
:103E2000031ED8B0032A800E045608AE1AEF1FF006
:103E30001CEF1FF025EF1FF0056C061ED8B0062AF8
:103E4000071ED8B0072A800E0856000E011A000E71
:103E5000021A000E031A800E041A000E051A000E34
:103E6000061A000E071A800E081A0550015C06504B
:103E700002580750035808500458D8B042EF1FF0BA
:103E800044EF1FF047EF1FF0D89048EF1FF0D880A5
:103E90001200000EC26E000EC16E000EBE6E000E4D
:103EA000C36E000EBF6E000EC06E070ECA6ECB68EA
:103EB000C668C7689F0EC86EC96804011869106992
:103EC0000869000E206F2869CC0E006F000E196F74
:103ED000000E296F000E216F000E096F000E016F9A
:103EE000000E116F000E0201896F000E886F000E28
:103EF000876F000E866F000E0401226F000E2A6F7E
:103F0000000E026F000E0A6F000E126F000E1A6F85
:103F100003690B6913691B69070E236F2B69046919
:103F20000C6914691C690F0E246F2C69180E0201AC
:103F3000166F190E176F1200000E606E030E616E81
:103F4000000E626E6368090E646E000E656E000EF0
:103F5000666E000E676E000E686E000E6A6E000ED2
:103F60006B6E000E6C6E000E6D6E000E6E6EB29C6F
:103F7000B29E67906792A29EA29C000E016E000EF8
:103F8000026E000E036EA4EC21F0000E016E000E16
:103F9000026E000E036E9DEC21F0000E016E000E0D
:103FA000026E000E036EABEC21F0800E696E120003
:103FB0005B50D8A4DEEF1FF0E0EF1FF0F6EF1FF02C
:103FC000000E046E000E036E000E066E010E056EEE
:103FD00086EC20F04AC503F54BC504F5000E066ECD
:103FE000010E056EAAEC20F00AEF20F0000E046E20
:103FF000000E036E000E066E010E056E86EC20F0BC
:1040000046C503F547C504F5000E066E010E056EA4
:10401000AAEC20F01200000E0301D96F000EDA6F37
:10402000000EDB6F000EDC6F000EDF6F000EE06F26
:10403000000EE56F000EE76F000EEC6F000EEE6FE6
:10404000000EEF6F000EF06F000EF16F000EF26FBA
:10405000000EF46F100EF56F000EF66F000EF76F86
:10406000000EF86F000EF96F130EFA6F840EF36FE7
:1040700012005C50D8B43FEF20F041EF20F061EF28
:1040800020F0C5EC21F093EC21F00009D8B44BEFFF
:1040900020F04DEF20F052EF20F0B19EB2EC21F075
:1040A0004E4A4F2AB80E4E5C0B0E4F58D8A05BEF0D
:1040B00020F05DEF20F061EF20F032EC21F0C2EC57
:1040C00021F012006DC407F56EC408F57AEF20F0F8
:1040D000055007260650082207C501F508C502F558
:1040E000B8EC21F06984E40E00D000D0E82EFCD7B3
:1040F00000D000D00350075C04500858D8A083EFCC
:1041000020F085EF20F068EF20F012006DC407F575
:104110006EC408F59EEF20F00550075E0650085A61
:1041200007C501F508C502F5B8EC21F06984E40E75
:1041300000D000D0E82EFCD700D000D00750035CA0
:1041400008500458D8A0A7EF20F0A9EF20F08CEF7A
:1041500020F012006BC407F56CC408F5C2EF20F024
:10416000055007260650082207C501F508C502F5C7
:10417000BDEC21F06984E40E00D000D0E82EFCD71D
:1041800000D000D00350075C04500858D8A0CBEFF3
:1041900020F0CDEF20F0B0EF20F012006BC407F557
:1041A0006CC408F5E6EF20F00550075E0650085A8B
:1041B00007C501F508C502F5BDEC21F06984E40EE0
:1041C00000D000D0E82EFCD700D000D00750035C10
:1041D00008500458D8A0EFEF20F0F1EF20F0D4EF12
:1041E00020F01200056E05C5ECF30301F38FF39D7B
:1041F000F381F3B1FEEF20F000EF21F0F9EF20F0B2
:10420000EB51046E036AEA510324016E000E042090
:10421000026E1200500E03011B6FE00E196FC00EEC
:10422000186F185119C301F5026A01C502F5016A38
:104230000110566E0250576EB19E900E1A6F12000A
:10424000000E0001606F000E616F000E636F000EC4
:10425000646F000E656F000E666F000E676F000ED4
:10426000686F12004AC503F54BC504F5000E066ED3
:10427000010E056E62EC20F0000E4F6E000E4E6EC9
:10428000000E5C6E1200000E046E000E036E000E37
:10429000066E010E056ECEEC20F0010E5C6E000E77
:1042A0005A6E120005016C6B6B6B6A6B696B01EEE9
:1042B00034F12C0EEE6AE806FDE10001E1EF14F0A6
:1042C000610E0001AD6F000EAF6F000EB36F080EF0
:1042D000B16F000EB06F000EAC6F120020EC21F039
:1042E00049EC1FF060EC21F00BEC20F00AEC21F01F
:1042F0009CEC1FF01200000E046E000E036E000E08
:10430000066E010E056E86EC20F0000E5B6E12004C
:104310004AC503F54BC504F5000E066E010E056E89
:10432000AAEC20F01200B1BE98EF21F09BEF21F033
:10433000010E9CEF21F0000E120001C563F502C5CD
:1043400064F503C565F5120001C566F502C567F59C
:1043500003C568F5120001C560F502C561F503C526
:1043600062F5120057500301196F56C518F3120079
:1043700001C56DF402506E6E120001C56BF402505F
:104380006C6E120003011A9F120003011A8F1200B3
:020000040001F9
:04FFFC0052EF21F0AF
:020000040030CA
:080000008CFFF7FF9FFFFFFFDB
:01000900FFF7
:00000001FF
